:100000000C946E010C9496010C9496010C9496013C
:100010000C9496010C9496010C9496010C94960104
:100020000C9496010C9496010C946B0F0C94370E63
:100030000C9496010C9496010C9496010C949601E4
:100040000C9496010C9496010C9496010C949601D4
:100050000C9496010C9496010C9496010C94A605B0
:100060000C9496010C94A1090C94D3090C9496015C
:100070000C9496010C9496010C9496010C949601A4
:100080000C9496010C9496010C9496010C94960194
:100090000C9496010C9496010C9496010C94960184
:1000A0000C9496010C9496010C949601E606E906D0
:1000B000D806DC06E2060A070A070A07ED06F1067B
:1000C000F506FB06FF060A070507070605040100FB
:1000D000080A0B0C0D090000000200090F000003C4
:1000E0000401000C000000000000000000000000FF
:1000F00000000000040802011040804010204080F1
:10010000408008020401804020100201108010206D
:100110004040040404040403040502020202040330
:100120000202020206060606060604040202020491
:1001300000000000250028002B002E0031000000E8
:100140000000240027002A002D003000080B0002C8
:10015000020201000904000001020200000524005F
:1001600010010524010101042402060524060001F2
:100170000705810310004009040100020A00000085
:10018000070502024000000705830240000000004E
:100190000000000000002A2B2800000000000000E2
:1001A00000000000000000000000000000002C9E85
:1001B000B4A0A1A2A434A6A7A5AE362D3738271E19
:1001C0001F20212223242526B333B62EB7B89F84BF
:1001D00085868788898A8B8C8D8E8F909192939457
:1001E00095969798999A9B9C9D2F3130A3AD350495
:1001F00005060708090A0B0C0D0E0F101112131437
:1002000015161718191A1B1C1DAFB1B0B50009043B
:100210000200010300000009210101000122650024
:100220000705840340000105010902A1010901A19C
:10023000008501050919012903150025019503759C
:100240000181029501750581030501093009310914
:10025000381581257F750895038106C0C005010901
:1002600006A1018502050719E029E715002501759A
:100270000195088102950175088103950675081599
:100280000025650507190029658100C000C180812E
:10029000C11201000202000040412336800001012A
:1002A00002000112010002000000404123368000DC
:1002B000010102000141726475696E6F204C4C436C
:1002C0000041726475696E6F204C656F6E61726477
:1002D0006F00040309043D08030AAD0B11241FBE7F
:1002E000CFEFDAE0DEBFCDBF11E0A0E0B1E0E4E6A1
:1002F000F0E202C005900D92A234B107D9F722E0D6
:10030000A2E4B1E001C01D92A936B207E1F712E004
:10031000CCEDD2E004C02297FE010E941810C63D29
:10032000D107C9F70E94BB0B0C9430100C9400004D
:10033000DC01ED91FC910190F081E02D09942FEF0B
:1003400031E0281B390BC90181529E4F8034910541
:1003500018F08BEF9FEF02C08CEF9FEFA901415681
:100360005E4F4034510510F48DEF9FEFA901415AC3
:100370005E4F4034510510F48EEF9FEFA901415EAE
:100380005E4F4034510510F48EEF9FEFA9014152AA
:100390005F4F4034510510F48FEF9FEFA901415694
:1003A0005F4F4034510508F450C0213A4FEF3407F5
:1003B000A4F0243D6FEF36075CF441E050E0019675
:1003C00011F440E050E088279927841B950B05C065
:1003D0002E323105ECF580E090E0A901415651093B
:1003E0004034510510F481E090E0A901415A5109CF
:1003F0004034510510F481E090E0A901415E5109BB
:100400004034510510F482E090E0A901415251407E
:100410004034510510F482E090E0A901415651406A
:100420004034510510F483E090E0A901415A514055
:100430004034510520F0213E314024F4089584E0F9
:1004400090E0089585E090E008958FEF9FEFC5CF8D
:100450002136310514F681E090E0BFCF8091020192
:100460008823E9F086EB91E00E945A08892BD1F3AA
:1004700068EC70E080E090E00E941F0686EB91E05F
:100480000E945A08892B29F086EB91E00E9475089A
:10049000F5CF68EC70E080E090E00C941F0686E6F3
:1004A00091E00E94A407892BD1F368EC70E080E012
:1004B00090E00E941F0686E691E00E94A407892B27
:1004C00041F386E691E00E94B407F5CF60E088E052
:1004D0000E940B0761E0809100010E940B0761E020
:1004E000809100010E94440768EE73E080E090E094
:1004F0000E941F0660E0809100010E9444078091E5
:100500005C018823C9F180910201882351F026E023
:1005100040E052EC61E070E086EB91E00E943F0920
:1005200008C040E052EC61E070E086E691E00E9495
:10053000370861E0809100010E9444078091020128
:100540006EE071E0882319F086EB91E002C086E648
:1005500091E00E940C0C0E942E028091020162E147
:1005600071E0882319F086EB91E002C086E691E005
:100570000E94290C0E942E0260E0809100010E94DE
:10058000440710924B0110924A01109249011092B7
:100590004801109247010E94F00560934201709358
:1005A00043018093440190934501089580915C013B
:1005B000882309F453C080910201882359F16DEF1B
:1005C00070E086EB91E00E94980165E070E086EBB8
:1005D00091E00E94980162E070E086EB91E00E9459
:1005E000980160E070E086EB91E00E94980160E085
:1005F00070E086EB91E00E94980160E070E086EB8D
:1006000091E00E94980160E070E086EB91E00E942A
:10061000980129C06DEF86E691E00E947A0765E0B7
:1006200086E691E00E947A0762E086E691E00E9409
:100630007A0760E086E691E00E947A0760E086E64D
:1006400091E00E947A0760E086E691E00E947A07D6
:1006500060E086E691E00E947A0705C067E08FE5DA
:1006600092E00E94DF0A64E170E080E090E00C9488
:100670001F0680915C01882309F4AEC080910201BD
:10068000882309F45BC06DEF70E086EB91E00E9477
:10069000980165E070E086EB91E00E94980162E0CD
:1006A00070E086EB91E00E949801809149018111F0
:1006B0000EC08091480181110AC0809147018111CB
:1006C00006C060E070E086EB91E00E9498018091A6
:1006D0004701882331F063E070E086EB91E00E94EF
:1006E000980180914801882331F062E070E086EB48
:1006F00091E00E94980180914901882331F061E0E6
:1007000070E086EB91E00E94980160914E0170913B
:100710004F0186EB91E00E94980160914C0170912D
:100720004D0186EB91E00E94980160914A01709121
:100730004B0186EB91E00E94980184C06DEF86E644
:1007400091E00E947A0765E086E691E00E947A07D0
:1007500062E086E691E00E947A078091490181116A
:100760000DC080914801811109C08091470181111C
:1007700005C060E086E691E00E947A07809147011B
:10078000882329F063E086E691E00E947A07809151
:100790004801882329F062E086E691E00E947A070A
:1007A00080914901882329F061E086E691E00E946A
:1007B0007A0760914E0186E691E00E947A07609187
:1007C0004C0186E691E00E947A0760914A0186E634
:1007D00091E00E947A0736C020914A0140914C0175
:1007E00060914E018FE592E00E94B40A8091490128
:1007F00081110DC080914801811109C0809147018C
:10080000811105C067E08FE592E00E94DF0A8091C8
:100810004701882329F064E08FE592E00E94DA0A1C
:1008200080914801882329F062E08FE592E00E94E0
:10083000DA0A80914901882329F061E08FE592E08E
:100840000E94DA0A64E170E080E090E00C941F06F8
:100850000F931F93CF93DF9380915A0190915B0187
:1008600090935701809356018091580190915901BE
:10087000909355018093540180E00E949D062FEFD4
:1008800033E0281B390B30935B0120935A0181E040
:100890000E949D0690935901809358012091540124
:1008A00030915501AC01421B530B509351014093C1
:1008B0005001C0915A01D0915B01209156013091B5
:1008C0005701AE01421B530B509353014093520109
:1008D0000E949F018C0190934F0180934E01CE01A5
:1008E0000E949F0190934D0180934C01109246010C
:1008F000012B11F4892B29F081E08093460161E0FE
:1009000001C060E0809100010E944407809158017D
:1009100090915901893592403CF18091500190911C
:1009200051018F35914004F180915A0190915B0102
:10093000895A91408F3A9105B8F48091490181110B
:1009400013C010924F0110924E0110924D0110925F
:100950004C0181E0809349011092480110924701B7
:100960000E943903109246018091580190915901DB
:10097000803991403CF58091500190915101823A2B
:100980009E4F04F580915A0190915B01895A9140E4
:100990008F3A9105B8F480914801811113C01092EB
:1009A0004F0110924E0110924D0110924C01109285
:1009B000490181E080934801109247010E94390368
:1009C0001092460180915A0190915B0189359240C5
:1009D00034F180915201909153018F359140FCF098
:1009E0008091580190915901895A91408F3A91050F
:1009F000B0F481E090E090934B0180934A01109213
:100A00004F0110924E0110924D0110924C018093B3
:100A1000460164E670E080E090E00E941F0680914D
:100A20005A0190915B01883A91403CF580915201C6
:100A300090915301823A9E4F04F580915801909114
:100A40005901895A91408F3A9105B8F48FEF9FEF81
:100A500090934B0180934A0110924F0110924E01E6
:100A600010924D0110924C0181E08093460164E6A2
:100A700070E080E090E00E941F0680915801909104
:100A800059018C5A9140893A910588F580915A0113
:100A900090915B018C5A9140893A910540F50E94F2
:100AA000F0050091420110914301209144013091E1
:100AB0004501601B710B820B930B67397105810532
:100AC000910580F010924901109248010E94D602CF
:100AD0000E94F005609342017093430180934401AA
:100AE0009093450110924B0110924A010AC00E9456
:100AF000F005609342017093430180934401909309
:100B0000450180914901813051F080914801813047
:100B100031F080914A0190914B01892B41F0109264
:100B20004F0110924E0110924D0110924C01809194
:100B30004601882331F0DF91CF911F910F910C94E2
:100B40003903DF91CF911F910F9108951F920F925A
:100B50000FB60F9211242F933F938F939F93AF93D0
:100B6000BF9380915E0190915F01A0916001B0916F
:100B7000610130915D0123E0230F2D3720F40196B0
:100B8000A11DB11D05C026E8230F0296A11DB11DB0
:100B900020935D0180935E0190935F01A0936001BB
:100BA000B09361018091620190916301A091640111
:100BB000B09165010196A11DB11D809362019093D2
:100BC0006301A0936401B0936501BF91AF919F91C0
:100BD0008F913F912F910F900FBE0F901F901895FE
:100BE0002FB7F89460915E0170915F018091600170
:100BF000909161012FBF08953FB7F89480916201F1
:100C000090916301A0916401B091650126B5A89B04
:100C100005C02F3F19F00196A11DB11D3FBF6627EA
:100C2000782F892F9A2F620F711D811D911D42E02F
:100C3000660F771F881F991F4A95D1F70895CF92A5
:100C4000DF92EF92FF92CF93DF936B017C010E94C2
:100C5000FC05EB01C114D104E104F10489F00E9408
:100C6000DF0F0E94FC056C1B7D0B683E734090F308
:100C700081E0C81AD108E108F108C851DC4FEACF79
:100C8000DF91CF91FF90EF90DF90CF90089578940F
:100C900084B5826084BD84B5816084BD85B5826081
:100CA00085BD85B5816085BDEEE6F0E0808181601F
:100CB0008083E1E8F0E0108280818260808380811F
:100CC00081608083E0E8F0E0808181608083E1E9F9
:100CD000F0E0808182608083808181608083E0E9B0
:100CE000F0E0808181608083E1ECF0E080818460CD
:100CF0008083808182608083808181608083E3EC57
:100D0000F0E0808181608083E0ECF0E080818260AF
:100D10008083E2ECF0E0808181608083EAE7F0E0AC
:100D20008081846080838081826080838081816013
:100D300080838081806880830895823108F08251A9
:100D4000E82FF0E0E653FF4FE49180917B00E3FB56
:100D5000222720F930E095E0220F331F9A95E1F722
:100D60008F7D822B80937B00E7708091030120E4CC
:100D7000829FC0011124E82BE0937C0080917A00CF
:100D8000806480937A0080917A0086FDFCCF809108
:100D900078002091790090E0922B089590E0FC017A
:100DA0003197EF30F105B0F5EA5AFF4F0C94161069
:100DB000809180008F7703C0809180008F7D809329
:100DC0008000089580918000877FF9CF84B58F7768
:100DD00002C084B58F7D84BD0895809190008F7787
:100DE00007C0809190008F7D03C080919000877F25
:100DF0008093900008958091C0008F7703C0809108
:100E0000C0008F7D8093C00008958091C200877FCD
:100E10008093C2000895CF93DF9390E0FC01EC50E3
:100E2000FF4F2491FC01EE5EFE4F8491882349F12F
:100E300090E0880F991FFC01E25CFE4FA591B491F0
:100E4000805D9E4FFC01C591D4919FB7611108C090
:100E5000F8948C91209582238C93888182230AC0F8
:100E6000623051F4F8948C91322F309583238C9317
:100E70008881822B888304C0F8948C91822B8C9378
:100E80009FBFDF91CF9108950F931F93CF93DF936F
:100E90001F92CDB7DEB7282F30E0F901EA52FF4F9D
:100EA0008491F901EC50FF4F1491F901EE5EFE4F71
:100EB00004910023C9F0882321F069830E94CE06A3
:100EC0006981E02FF0E0EE0FFF1FE05DFE4FA5917E
:100ED000B4919FB7F8948C91611103C01095812350
:100EE00001C0812B8C939FBF0F90DF91CF911F91F9
:100EF0000F910895CF93DF931F92CDB7DEB769832B
:100F0000DC01ED91FC910280F381E02D41E050E0A5
:100F1000BE016F5F7F4F09950F90DF91CF910895CC
:100F2000CF93DF93EC018C859D8597FF05C082E010
:100F30000E940C0D9D878C878C859D85DF91CF91BC
:100F4000089583E00C94610FFC018485958597FDDD
:100F500006C082E00E94B40C90E00196089582E001
:100F60000E94B40C90E00895FC018485958597FD5E
:100F700005C02FEF3FEF35872487089582E00C945A
:100F80000C0DCF93DF93EC0180910B01882331F09E
:100F900083E00E943D0D1816190634F081E090E0C0
:100FA0009B838A8380E090E0DF91CF910895FC01DC
:100FB00020812E5F208342E450E06CE471E080E801
:100FC0000C94D80DFC0181819081913A59F48132C1
:100FD00009F03CC047E050E064E071E080E00E942E
:100FE000D80D43C0913291F5803239F467E070E05A
:100FF00084E091E00E94090E06C0823209F035C0FB
:10100000828180930B018091040190910501A09150
:101010000601B0910701803B9440A105B105C1F4E0
:1010200080910B0180FD14C087E797E7909301083A
:10103000809300082BE088E190E00FB6F894A89523
:10104000809360000FBE209360000FC080E0089581
:1010500088E10FB6F89480936000109260000FBE94
:10106000A895109201081092000881E008952FEFD2
:101070003FEFFC0135872487089510926901109293
:10108000680188EE93E0A0E0B0E080936A0190935D
:101090006B01A0936C01B0936D0188E191E0909396
:1010A0006701809366018FEF9FEF909373018093A8
:1010B00072010895FC01818D228D90E0805C9F4F2C
:1010C000821B910960E470E00E94E00F0895FC012A
:1010D000918D828D981731F0828DE80FF11D858DED
:1010E00090E008958FEF9FEF0895FC01918D828D20
:1010F000981761F0828DDF01A80FB11D5D968C916C
:10110000928D9F5F9F73928F90E008958FEF9FEF76
:10111000089589EF99E0892B49F080E090E0892BD0
:1011200029F00E94F90981110C9400000895FC0136
:10113000848DDF01A80FB11DA35ABF4F2C91848D60
:1011400090E001968F739927848FA689B7892C9395
:10115000A089B1898C9180648C93938D848D981330
:1011600006C00288F389E02D80818F7D80830895F9
:10117000CF93DF93EC01888D8823C9F0EA89FB893E
:10118000808185FD05C0A889B9898C9186FD0FC035
:101190000FB607FCF5CF808185FFF2CFA889B9890A
:1011A0008C9185FFEDCFCE010E949708E7CFDF91AC
:1011B000CF910895CF92DF92FF920F931F93CF9319
:1011C000DF931F92CDB7DEB76C01DC015B969C917B
:1011D0005B975C968C915C97981307C05096ED9145
:1011E000FC915197808185FD32C0F601038D10E09E
:1011F0000F5F1F4F0F731127F02EF601848DF81229
:1012000011C00FB607FCF9CFD6015096ED91FC91B5
:101210005197808185FFF1CFC60169830E949708AD
:101220006981EBCF838DE80FF11DE35AFF4F608397
:10123000D6015B960C935B975296ED91FC91539778
:1012400080818062808381E058968C930DC0D601A6
:101250005696ED91FC91579760835096ED91FC91D5
:10126000519780818064808381E090E00F90DF91CE
:10127000CF911F910F91FF90DF90CF900895BF9273
:10128000CF92DF92EF92FF92CF93DF93EC016A014E
:101290007B01B22EE889F98982E08083411581EED5
:1012A000580761057105A1F060E079E08DE390E0F9
:1012B000A70196010E94F40F2150310941095109FB
:1012C0005695479537952795211580E1380798F071
:1012D000E889F989108260E874E88EE190E0A7015E
:1012E00096010E94F40F2150310941095109569588
:1012F000479537952795EC85FD853083EE85FF85ED
:101300002083188EEC89FD89B082EA89FB8980816F
:1013100080618083EA89FB89808188608083EA8993
:10132000FB89808180688083EA89FB8980818F7D49
:101330008083DF91CF91FF90EF90DF90CF90BF90AF
:1013400008951F920F920FB60F9211242F938F932F
:101350009F93EF93FF93E091C601F091C7018081C5
:10136000E091CC01F091CD0182FD12C0908180917D
:10137000CF018F5F8F732091D001821751F0E091E0
:10138000CF01F0E0EA54FE4F958F8093CF0101C06A
:101390008081FF91EF919F918F912F910F900FBEC0
:1013A0000F901F9018951F920F920FB60F92112455
:1013B0002F933F934F935F936F937F938F939F935D
:1013C000AF93BF93EF93FF9386EB91E00E94970852
:1013D000FF91EF91BF91AF919F918F917F916F910D
:1013E0005F914F913F912F910F900FBE0F901F90E3
:1013F000189586EB91E00E945A0821E0892B09F4A8
:1014000020E0822F08951092B9011092B80188EE61
:1014100093E0A0E0B0E08093BA019093BB01A09369
:10142000BC01B093BD0188E291E09093B701809335
:10143000B6018DEC90E09093C3018093C2018CECD7
:1014400090E09093C5018093C40188EC90E0909364
:10145000C7018093C60189EC90E09093C901809305
:10146000C8018AEC90E09093CB018093CA018EEC86
:1014700090E09093CD018093CC011092CF01109217
:10148000D0011092D1011092D2010895FF920F93D2
:101490001F93CF93DF93EC01F62EE881F98104804E
:1014A000F581E02D09958C01E881F9810680F781AD
:1014B000E02D6F2DCE010995C8019927DF91CF91BD
:1014C0001F910F91FF900895FC0120812F5F2083D1
:1014D00049E150E06EE072E080E80C94D80D45E6FA
:1014E00050E067E272E080E80C94D80DEF92FF9232
:1014F0000F931F93CF93DF931F92CDB7DEB78983EE
:101500008B017A0141E050E0BE016F5F7F4F84E0C4
:101510000E943D0DA701B80184E40E943D0D0F908B
:10152000DF91CF911F910F91FF90EF900895FC01F3
:1015300091818081813A31F481E0913091F0933052
:1015400089F411C0813271F49B3021F4828180933F
:101550000D0105C09A3031F4828180930C0181E045
:101560000895089580E00895CF93DF9300D000D0D0
:10157000CDB7DEB7FC01808189836A834B832C83DE
:1015800044E050E0BE016F5F7F4F81E00E94760A29
:101590000F900F900F900F90DF91CF910895FC0165
:1015A0002081621731F0608320E040E060E00C941D
:1015B000B40A0895FC012081622B0C94CF0A609537
:1015C000FC01208162230C94CF0A48E050E082E0C5
:1015D0000C94760ACF93DF93DC01683818F0E8E7C3
:1015E000E60F25C0E62FF0E067FF11C0E058F109D3
:1015F00081E090E001C0880FEA95EAF714969C918B
:101600001497982B14969C931497E0E010C0E2571F
:10161000FE4FE491EE2309F440C0E7FF08C01496A2
:101620008C911497826014968C931497EF7716968A
:101630008C9116978E1741F117968C9117978E17EC
:1016400019F118968C9118978E17F1F019968C91C4
:1016500019978E17C9F01A968C911A978E17A1F0C8
:101660001B968C911B978E1779F080E090E0ED012E
:10167000C80FD91F2E81211102C0EE8305C001962B
:1016800086309105A1F709C0BD016C5F7F4FCD0188
:101690000E94E50A81E090E008C081E090E01396A6
:1016A0009C938E93129780E090E0DF91CF91089504
:1016B000683818F0E8E7E60F25C0E62FF0E067FF8E
:1016C00012C0E058F10921E030E001C0220FEA9594
:1016D000EAF72095DC0114963C9114973223149676
:1016E0003C93E0E00FC0E257FE4FE491EE2329F176
:1016F000E7FF08C0DC0114962C9114972D7F1496F7
:101700002C93EF7720E030E0EE2351F0DC01A20FC4
:10171000B31F16964C9116974E1302C016961C9244
:101720002F5F3F4F2630310579F7BC016C5F7F4F4B
:101730000E94E50A81E090E0089580E090E008953D
:10174000FC01168217821086118612861386148277
:10175000BC016C5F7F4F0C94E50A10925F021092FF
:1017600056021092550288E391E0909354028093C0
:101770005302089508950E9447060E94BA0B80E61E
:1017800092E00E94C10F0E946602C9E8D8E00E9460
:1017900028042097E1F30E948908F9CFCF92DF92C5
:1017A000EF92FF920F931F93CF93DF936C017A0117
:1017B000EB01E60EF71E00E010E0CE15DF0561F04C
:1017C0006991D601ED91FC910190F081E02DC60167
:1017D0000995080F191FF1CFC801DF91CF911F9113
:1017E0000F91FF90EF90DF90CF90089561157105F4
:1017F00081F0DB010D900020E9F7AD014150510966
:10180000461B570BDC01ED91FC910280F381E02D2A
:10181000099480E090E008950C94F60BDC01ED91C2
:10182000FC910190F081E02D09940F931F93CF93C9
:10183000DF93EC016DE00E940E0C8C016AE0CE019A
:101840000E940E0C800F911FDF91CF911F910F917D
:1018500008950F931F93CF93DF93EC010E94F60B33
:101860008C01CE010E94150C800F911FDF91CF914A
:101870001F910F910895409164025091650220914B
:1018800062023091630242175307B4F49091E8006A
:101890009570E1F39091E80092FD19C08093F100FA
:1018A000809164029091650201968F739927892B2C
:1018B00019F48EEF8093E8008091640290916502A4
:1018C0000196909365028093640281E0089580E020
:1018D0000895CF92DF92FF920F931F93CF93DF93E0
:1018E0001F92CDB7DEB7082F162F862F880F8E5F79
:1018F00099830E943B0C83E00E943B0CF02EC02E8B
:101900009981D92E8C2D8F19811778F4F601849145
:101910000E943B0C082F80E00E943B0C8023FFEFCD
:10192000CF1ADF0A8111EECF01C081E00F90DF9165
:10193000CF911F910F91FF90DF90CF90089561504C
:1019400030F02091F100FC0120830196F8CF289817
:1019500084E68093670208952FB7FC012083F894F2
:1019600067706093E9000895CF93DF931F92CDB71E
:10197000DEB7682FCE0101960E94AC0C8091F20078
:1019800099819FBF0F90DF91CF910895FF920F93A0
:101990001F93CF93DF9300D0CDB7DEB7F62E8A0129
:1019A00090916602992311F057FF03C08FEF9FEFCC
:1019B0002BC0682FCE0101967A830E94AC0C8091D7
:1019C000F20090E0A8017A81801791070CF4AC0135
:1019D000EF2DF72FF40E84E6FE1639F02898809349
:1019E00067029091F1009193F7CF4115510521F0D5
:1019F0008091F200882321F089818FBFCA0104C041
:101A00008BE68093E800F8CF0F900F90DF91CF9195
:101A10001F910F91FF900895CF93DF931F92CDB741
:101A2000DEB741E050E0BE016F5F7F4F0E94C60C01
:101A3000019719F4898190E002C08FEF9FEF0F901A
:101A4000DF91CF910895CF93DF931F92CDB7DEB78B
:101A5000682FCE0101960E94AC0C9091E800892F6E
:101A6000807295FF04C09091F20080E4891B9981F7
:101A70009FBF0F90DF91CF9108956F927F928F92C9
:101A80009F92AF92BF92CF92DF92EF92FF920F930D
:101A90001F93CF93DF931F92CDB7DEB7782E7B01D4
:101AA000C42EB52E80916602882369F0042F152F6D
:101AB0008AEFD82E872D8072982E9AE3A92E872D33
:101AC0008074882E11C08FEF9FEF57C0872D0E9422
:101AD000230D682E81110CC0DA94A9F361E070E047
:101AE00080E090E00E941F060115110579F73BC0C8
:101AF000282F30E0021713070CF4602E672DCE015B
:101B000001960E94AC0C8091E80085FF29C0262D2B
:101B100030E0021B130B992039F06A948FEF68169E
:101B2000B1F01092F100F9CFF701862D77FE07C0D2
:101B3000815058F094919093F1003196F9CF8150F3
:101B400020F091919093F100FACFE20EF31E809174
:101B5000E80085FF0FC00115110511F481100AC0BE
:101B600089818FBFC1CF5D9884E6809368028C2DF8
:101B70009B2D03C0A092E800F3CF0F90DF91CF918F
:101B80001F910F91FF90EF90DF90CF90BF90AF909B
:101B90009F908F907F906F9008951092E90010921F
:101BA000650210926402909363028093620208952A
:101BB000CF92DF92FF920F931F93CF93DF9300D0CA
:101BC000CDB7DEB7F82E8A016B0101151105B1F012
:101BD000F601F7FE02C0849101C0808149835A83D7
:101BE0000E943B0C01501109FFEFCF1ADF0A498117
:101BF0005A818111EACF8FEF9FEF01C0CA010F9088
:101C00000F90DF91CF911F910F91FF90DF90CF90B8
:101C100008951F93CF93DF931F92CDB7DEB7162F92
:101C20002091E80022FFFCCF612F79830E949F0C56
:101C30008BEF8093E800812F7981972F0F90DF91B0
:101C4000CF911F910895CF93DF931F92CDB7DEB749
:101C50001982CE0101960E94D707CE0101960E94FB
:101C6000640A898190E00F90DF91CF9108951F92CF
:101C70000F920FB60F921124EF92FF920F931F93C2
:101C80002F933F934F935F936F937F938F939F9384
:101C9000AF93BF93EF93FF93CF93DF93CDB7DEB7AF
:101CA0006297DEBFCDBF1092E9008091E80083FF0C
:101CB000EBC068E0CE010A960E949F0C82EF8093F1
:101CC000E8009A8597FF05C08091E80080FFFCCF6F
:101CD00003C08EEF8093E800892F807609F0B9C0A9
:101CE0008B85811105C01092F1001092F100C5C0E2
:101CF000282F2D7F213009F4C0C0853049F4809110
:101D0000E80080FFFCCF8C8580688093E300B5C03D
:101D1000863009F076C02D85E888F988223071F583
:101D200080E090E02A8B0E94CD0D0E94230E99E066
:101D30008E010F5F1F4FF801392F11923A95E9F785
:101D400099832A892A8391E09E8390E898879AEF65
:101D500099872091640230916502275F3F4F3C8351
:101D60002B838D83C7010E94CD0D49E050E0B8015F
:101D700080E00E94D80D0E94230E7FC0C7012A8BED
:101D80000E94CD0D2A89223241F482E290E00E9425
:101D90006F0A892B09F071C074C0213069F48889F9
:101DA0009989089711F42093610280916102811151
:101DB00018C063EA72E01AC0233009F062C08C8553
:101DC000882391F0823021F460E181EC92E006C03A
:101DD000813009F056C06BE085EB92E00E94690CFF
:101DE0004AC061E972E002C062ED72E061157105FE
:101DF00009F447C0FB01449150E080E80E94D80DEF
:101E00003CC0873009F43DC0883021F481E08093E4
:101E1000F10033C0893089F5937099F5EDE8F2E06F
:101E200081E021E096E38093E9002093EB00349178
:101E30003093EC009093ED008F5F3196853099F7E9
:101E40008EE78093EA001092EA008C858093660208
:101E500014C0888999890E94CD0D8E85811105C095
:101E6000CE010A960E94E20706C0823051F4CE01EC
:101E70000A960E94970A882321F08EEF8093E8004B
:101E800003C081E28093EB0062960FB6F894DEBF48
:101E90000FBECDBFDF91CF91FF91EF91BF91AF9179
:101EA0009F918F917F916F915F914F913F912F9172
:101EB0001F910F91FF90EF900F900FBE0F901F900A
:101EC00018958093E9008091F200882319F08AE345
:101ED0008093E80008951F920F920FB60F9211247D
:101EE0002F933F934F935F936F937F938F939F9322
:101EF000AF93BF93EF93FF938091E1001092E100C5
:101F000083FF0FC01092E90091E09093EB001092D4
:101F1000EC0092E39093ED001092660298E09093AB
:101F2000F00082FF1DC083E00E94610F8091680273
:101F3000882339F080916802815080936802882359
:101F400069F080916702882359F08091670281507F
:101F500080936702811104C0289A02C05D9AF1CF74
:101F6000FF91EF91BF91AF919F918F917F916F9171
:101F70005F914F913F912F910F900FBE0F901F9047
:101F800018951092660281E08093D70080EA8093D2
:101F9000D80082E189BD09B400FEFDCF61E070E0A8
:101FA00080E090E00E941F0680E98093D8008CE0DA
:101FB0008093E2001092E000559A209A08950895C7
:101FC00097FB072E16F4009407D077FD09D00E94E6
:101FD0001C1007FC05D03EF4909581959F4F089505
:101FE000709561957F4F0895A1E21A2EAA1BBB1B25
:101FF000FD010DC0AA1FBB1FEE1FFF1FA217B307D5
:10200000E407F50720F0A21BB30BE40BF50B661FEA
:10201000771F881F991F1A9469F7609570958095AE
:1020200090959B01AC01BD01CF010895EE0FFF1FFC
:102030000590F491E02D0994AA1BBB1B51E107C048
:10204000AA1FBB1FA617B70710F0A61BB70B881F48
:10205000991F5A95A9F780959095BC01CD010895D7
:04206000F894FFCF22
:102064000E00010100E10000000000000101242431
:1020740024004300000000007A07C107A407B40746
:102084009007A10700000000DA08CE0B5A08750873
:102094006708B80800000000460ACE0BEA0A580B8D
:0220A400A00B8F
:00000001FF
